:020000040800F2
:1000000070180020010100083D2A0008152600088C
:10001000392A000891030008F54800080000000094
:10002000000000000000000000000000452A000859
:100030007904000800000000412A0008492A00084D
:100040001B0100081B0100081B0100081B01000820
:100050001B0100081B0100081B0100081B01000810
:100060001B0100081B0100081B0100081B01000800
:100070001B0100081B0100081B0100081B010008F0
:100080001B0100081B0100081B0100081B010008E0
:10009000954700081B0100081B0100081B01000810
:1000A0001B0100081B0100081B0100081B010008C0
:1000B0001B0100081B0100081B0100081B010008B0
:1000C0001B0100081B0100081B0100081B010008A0
:1000D0001B0100081B0100081B0100081B01000890
:1000E0001B0100081B0100081B010008DFF80CD0F1
:1000F00000F010F900480047F94800087018002087
:100100000648804706480047FEE7FEE7FEE7FEE7B1
:10011000FEE7FEE7FEE7FEE7FEE7FEE7E12A00086E
:10012000ED00000840EA01039B0703D009E008C97D
:10013000121F08C0042AFAD203E011F8013B00F8AC
:10014000013B521EF9D27047D2B201E000F8012BF8
:10015000491EFBD270470022F6E710B513460A4647
:1001600004461946FFF7F0FF204610BD421C10F868
:10017000011B0029FBD1801A7047F0B480EA01020C
:10018000D40F4200B2EB410F02D20246084611469C
:100190004A0042D0C30DDDB2C1F3C752AD1A202DC3
:1001A00035DAC1F3160141F4000204B15242C5F13F
:1001B000200602FA06F12A411044B3EBD05F23D0A7
:1001C000C4B1012DA0EBC35009DCF0BC4FF00042DC
:1001D00002EAC352DBB200F5000000F051B8400063
:1001E00000F1807000EBC350A0F1807040EAD17044
:1001F000490009E0490841EAC071A0EBC35000F58D
:100200000000400800EBC350F0BC00F030B8614281
:10021000012202EB4101001BF6E7F0BC704781F0C0
:100220000041AAE780F00040A7E7C10F80EAE07034
:100230000844CA079623002100F022B800F00042CB
:1002400020F00040C10DC0F3160040F400007F29EB
:1002500001DA00207047962903DCC1F19601C840FD
:1002600001E096398840002AF4D0404270470029C6
:10027000A8BF7047401C490008BF20F0010070472C
:1002800010B4B0FA80FC00FA0CF050EA010404BF8C
:1002900010BC704749B1CCF1200421FA04F411FAE2
:1002A0000CF118BF012121430843A3EB0C01CB1D26
:1002B0004FEA00614FEA102042BF002010BC704797
:1002C00000EBC35010440029A4BF10BC7047401C71
:1002D000490008BF20F0010010BC7047002801DB76
:1002E000C0F10040002901DBC1F10041814202D28E
:1002F0004FF0004004E04FF0005001D14FF0C040FB
:10030000EFF3008121F07F4141EA000181F3008891
:1003100070470000064C074D06E0E06840F001031E
:1003200094E8070098471034AC42F6D3FFF7E2FE9A
:10033000F86700081868000870B58C1810F8015BA1
:1003400015F0070301D110F8013B2A1106D110F86E
:10035000012B03E010F8016B01F8016B5B1EF9D172
:100360002B0705D40023521E0DD401F8013BFAE7F8
:1003700010F8013BCB1A921C03E013F8015B01F863
:10038000015B521EF9D5A142D8D3002070BD0000F8
:10039000FEE70000002070470020704710B540F6CF
:1003A000F454C2F2000440F6CC11C2F2000120461F
:1003B000002202F093FC40F2E451C2F20001204618
:1003C00002F086FC002010BDF0B581B040F6F45676
:1003D0000446C2F200060D463046214602F078FC83
:1003E000304602F057FC2D6841F26447C2F2000724
:1003F000D6F8B8023D60D0F8140260B9AAB240F64F
:10040000F455C2F200052846214602F067FC284652
:1004100002F0E6FC3D6840F6B456C2F20006C5F1B3
:10042000400170193F2D88BF0021FFF794FE304630
:1004300021462A46FFF776FE002001B0F0BD0000FD
:1004400010B540F6F452C2F20002D2F8B822D2F847
:100450001432002B1CBF012010BD40F6F454C2F230
:1004600000040A460146204602F038FC2046BDE85A
:10047000104002F0B5BC000070470000EFF31080A0
:1004800072B600BFFEE70000B0B581B00022009256
:1004900090F82420012A01D1022164E04B68012256
:1004A000062B80F8242010D8D0F800C003EB83037B
:1004B00062465D1F1F2352F834EF03FA05F40B6800
:1004C0002EEA040E03FA05F419E0D0F800C00C2B54
:1004D000624606D852F830EF03EB8303A3F12304FE
:1004E00005E052F82CEF03EB8303A3F141041F2333
:1004F00003FA04F50B682EEA050E03FA04F444EA45
:100500000E05092B15601ED903EB4305DCF80C2002
:100510001E3D07248968AC40A243A940114323F043
:100520000102102ACCF80C1019D142F20841C4F291
:100530000101A1F10802944518D0816A41F020011F
:10054000816201210CE0DCF8102003EB4303072556
:1005500089689D40AA4399401143CCF810100021AE
:10056000002280F82420084601B0B0BD0A681202BB
:10057000F5D40A68102B42F400020A60EFD140F271
:100580001C01C2F2000109684DF68362C4F21B32FD
:10059000A1FB0212910C01EB81014900009100992D
:1005A0000029DCD000990139009100990029D6D0AA
:1005B00000990139009100990029D0D000990139A2
:1005C000009100990029CAD0009901390091009941
:1005D00000294FF00001E5D1C2E700000068C06CBF
:1005E00070470000002804BF0120704770B5064620
:1005F000044656F8280F30B90020E06284F8240041
:10060000204600F097F820688168C90726D1316834
:10061000C9063DD4A16A41F2021291430231A1629E
:10062000E169D4E9013241EA030C531EB3FA83F3C2
:100630005D091346B2F5807F18BF2B02217D257B13
:1006400001294CEA450134D145B3A56A45F020059E
:10065000A562E56A45F00105E5622AE0816821F0BE
:100660000101816000F07AFB054600BF20688168C7
:10067000C907CCD000F072FB401B0328F6D3A06A58
:1006800040F01000A062E06A40F00100E062A06A61
:10069000306840F010010120316070BDD4F818C0FE
:1006A0004EF20005CFF6FF7505EB4C352B4343F4B6
:1006B00000634568B2F5807F25F4694543EA050388
:1006C000436083684FF2FD75CFF6E17503EA0503D9
:1006D00043EA0103836001D0012A06D12269002385
:1006E000CFF6F07303EB025200E00022C36A23F45A
:1006F00070031A43C262806840F6FE62CFF61F7232
:100700001040884207D10020E062A16A012262F312
:100710000101316070BDA06A40F0100020F00200BD
:10072000A06254F82C0F40F00101012026463160F0
:1007300070BD000080B586B0014640F60000C4F2EE
:100740000100096800F5E05291424FF00001CDE947
:100750000411CDE9021101D006B080BD41F21801AB
:10076000C4F202010A6842F400720A600A6802F4E4
:1007700000720192019A0A6842F004020A60096854
:1007800001F00401019101990321CDE9021102A9AF
:1007900000F0CCF906B080BD2DE9F04182B0002612
:1007A0000D460446019600F0D9FA21688A68D20500
:1007B0003CD480464868C00503D4C86A10F4700F62
:1007C0003ED040F21C00C2F20000076842F292469E
:1007D0000220C1F2492601F091F9216844F6241360
:1007E0000A69B7FBF0F0C2F292431A4206D1CA6816
:1007F00044F62413C0F292031A4229D00A69324205
:1008000006D1CA6842F29243C0F249031A422DD07F
:100810000A6949F24923C0F224031A424FF0FC024C
:1008200025D1CF681F4208BF542220E0A06A40F0C3
:100830002000A06284F82460012002B0BDE8F081AD
:100840000868800767D4002D59D06E1C1AD02AE0A2
:100850000A6932424FF0290209D1CB6842F292472D
:10086000C0F249073B4208BF142200E05422019B1A
:1008700002FB00F7BB424ED2002D40D06E1C1BD0B5
:1008800037E000BF0868800745D466B9086880076C
:1008900041D446B9086880073DD426B90868800766
:1008A00039D4002EEED000F059FAA0EB0800A8428F
:1008B00025D82168E6E700BF019801300190019832
:1008C000B84227D2AEB90198013001900198B842E0
:1008D00020D276B90198013001900198B84219D21E
:1008E0003EB90198013001900198B84212D2002E11
:1008F000E2D000F033FAA0EB0800A842DCD9A06AED
:1009000040F00400A062002084F82400032002B01C
:10091000BDE8F08121686FF012000860A06A40F421
:100920000070A062886800F46020B0F5602F0CD1E0
:10093000207B50B9A06A20F48070A062A06AC00435
:1009400003D4A06A40F00100A062002002B0BDE81C
:10095000F0810000B0B582B0044690F82400012870
:1009600002D1022002B0B0BD012084F82400002092
:10097000019020688168C9073FD1816841F0010179
:10098000816040F21C00C2F2000000684DF68361F5
:10099000C4F21B31A0FB0101880C00BF019001983B
:1009A00088B1019801380190019860B1019801382F
:1009B0000190019838B1019801380190019810B167
:1009C00001980138EAE700F0C9F905462068816816
:1009D000C90712D100F0C2F9401B0228F6D9A06A5B
:1009E00040F01000A062E06A40F00100E0620020E8
:1009F00084F82400012002B0B0BDA26A42F2044192
:100A000040F20133C4F201019A4302F5807301F50B
:100A10007F729042A3622AD0A36A23F48013A36258
:100A200043685B0504D5A36A012565F30D33A36212
:100A3000A56A0023ED044FF0000544BFE56A25F0E8
:100A40000605E56284F824306FF0020303608368D2
:100A500003F46023B3F5602F05D1904213D10968E8
:100A600011F4702F0FD0816841F480110EE00B68F3
:100A700013F4702FD0D0A36A43F48013A3620B68E1
:100A80005B05D0D4D4E7816841F4A00181600020E7
:100A900002B0B0BDB0B5044690F82400012804BFF0
:100AA0000220B0BD0121206884F824108168C907A4
:100AB00008D1214651F8280F41F2011220EA020222
:100AC000002018E0816821F00101816000F046F902
:100AD000054600BF20688068C007EAD000F03EF9F4
:100AE000401B0328F6D3A06A214640F01000A06204
:100AF00051F82C2F012042F001020A60002184F8F5
:100B00002410B0BDB0B5044600F028F9054640F207
:100B10007C10C2F200000078611C18BF044400BFC2
:100B200000F01CF9401BA042FAD3B0BD2DE9F04FF4
:100B300082B00E68002E00F0018140F2004E41F2BA
:100B400000424FF6FF77C4F2010EC4F20102042303
:100B500000244FF0010CC1F210074FF00F0B4FF0C3
:100B6000000A4FF00009904208BF0323009345E0BC
:100B70000123BB402B4342F82C30D1F804B04FF690
:100B8000FF775FEACB32DEF8002054BF22EA08028A
:100B900042EA0802CEF80020DEF804205FEA8B3338
:100BA00054BF22EA080242EA0802CEF804205FEAB3
:100BB000CB23DEF8082054BF22EA080242EA0802EA
:100BC0005FEA8B2340F20C43CEF80820C4F2010305
:100BD0004FF0010C1A68C1F210074FF00F0B54BF11
:100BE00022EA080242EA08021A600E680AF1010AC3
:100BF00036FA0AF204F1040400F0A0800CFA0AF8B4
:100C000016EA080FF1D04A68BA4211DC122A51D80C
:100C1000DFE802F0340A42465050505050505050D5
:100C20005050505050494D00D1F80C9042E000BF58
:100C30004FF6FF73C1F221039A420FDC0023C1F289
:100C400011039A421AD00023C1F212039A4215D01E
:100C50000023C1F221039A4210D02BE00023C1F2FD
:100C600022039A420AD00023C1F231039A4205D0EE
:100C70000023C1F232039A421CD100BF8A6842B1FC
:100C8000012A14BFC0F81480C0F810804FF0080982
:100C900010E04FF004090DE0CA6802F1080909E00C
:100CA0004FF0000906E0CA6802F1040902E0CA68D0
:100CB00002F10C0922460346BAF1080F24BF203A7C
:100CC00004331D680BFA02F6B54309FA02F22A430F
:100CD0001A60CA79D2067FF588AF41F21803C4F2D0
:100CE00002031A684FEA9A0C42F001021A601A686D
:100CF00004F00C0702F001020192019AAEF57E7237
:100D000052F82C3040F600060BFA07F5C4F2010643
:100D1000B04223EA05050FD040F60043C4F20103B8
:100D200098423FF425AF41F20003C4F20103984218
:100D3000009B08BF02231CE700231AE702B0BDE8AE
:100D4000F08F00008068084018BF01207047000045
:100D5000002A08BF090401617047000041F26840A1
:100D6000C2F200000068704740F27C1041F2684116
:100D7000C2F20000C2F2000100780A681044086064
:100D80007047000080B542F20000C4F20200016822
:100D900041F010010160032000F08EF8002000F007
:100DA00005F800F02BF8002080BD0000B0B540F23F
:100DB0007C12C2F2000240F21C011278C2F2000161
:100DC0004FF47A730968B3FBF2F20446B1FBF2F117
:100DD000084601F059FA0F2C4FF001050CD858B90C
:100DE0004FF0FF3021460022002500F039F840F294
:100DF0008010C2F2000004602846B0BD82B041F20B
:100E00001800C4F202000168022241F001010160F1
:100E1000016801F0010101910199416841F080519F
:100E20004160406800F08050009000980420C4F2B7
:100E30000100016862F31A61016002B070470000AE
:100E4000002848BF704700F01F01012202FA01F19B
:100E50004EF200124009CEF2000242F82010704714
:100E600010B54EF60C5CCEF2000CDCF80030C3F38B
:100E7000022E8EF00704042C28BF0424BEF10303C5
:100E80004FF0FF3E0EFA04F438BF0023A14399400F
:100E90000EFA03F39A4300F00F03043B114363443B
:100EA00009010C3300F16042B0F1FF3FC8BF02F509
:100EB0006443197010BD00004EF60C51CEF20001D3
:100EC0000A684FF6FF031A4060F30A2242F080607E
:100ED00040F0FD700860704780B501F0070C0CEB26
:100EE0008C0C00EBCC0C01EB810E0CF1280C00EB10
:100EF000CE00090658BF00F5B47C0020002A19BFB7
:100F0000CCF808300121ACF8063000218CF80C1028
:100F100080BD00007047000001EB8102D0F8E8328C
:100F200000EBC200C26B184602F08EB901EB8102E1
:100F3000D0F8E83200EBC200D0F87C21184602F06D
:100F4000E5B9000010B50446080601F0070000EB03
:100F5000800104EBC10205D402F5B471002382F8CC
:100F6000693104E0012302F1280182F8293094F864
:100F7000A8220870012A04BF022010BD20680122A7
:100F800084F8A82202F054FF002084F8A80210BDC3
:100F9000B0B50446406801F00F02824284BF0120D0
:100FA000B0BD080601F0070000EB800104EBC102B0
:100FB00005D402F5B471002382F8693104E00123FD
:100FC00002F1280182F8293094F8A8220025012A8C
:100FD0008D70087004BF0220B0BD2068012284F823
:100FE000A82202F0C5FF284684F8A852B0BD000030
:100FF00001F0070101EB810100EBC100D0F8840191
:1010000070470000B0B50546080601F0070000EB88
:10101000800105EBC10C05D40CF5B47100248CF8EB
:10102000694104E001240CF128018CF829404C7836
:101030000870002C0A61CB7018BFC881022B04BF56
:101040000020087195F8A802012804BF0220B0BD55
:101050002868012285F8A82202F0BEFD002085F84C
:10106000A802B0BD10B501F0070C0CEB8C0100EB31
:10107000C10E00680EF5B4710024CEF87C21CEF8C4
:101080008031CEF884418EF869418EF868C102F053
:10109000C9FF002010BD0000B0B50446406801F053
:1010A0000705854284BF0120B0BD080609D401EBC5
:1010B000810004EBC00000F5B471002280F86921C2
:1010C00008E005EB850004EBC000012200F12801D7
:1010D00080F8292094F8A802012201288A700D7056
:1010E00004BF0220B0BD206884F8A82202F080FF6F
:1010F00025B9206804F52C7102F038FF002084F82F
:10110000A802B0BD80B501F0070C0CEB8C0100EB20
:10111000C10101F828CF4FF0010C01F1140781F84B
:1011200024C04FF0000E87E80C4000680B6281F885
:1011300001C002F077FF002080BD00002DE9F04FD4
:1011400081B00446006803F02BFB014620680904C7
:1011500005D5B0F94410B1F1FF3F40F3C48003F06E
:101160001FFB400519D52068B0F8441021F48061B8
:10117000A0F84410204600F05DFC94F8A802012875
:101180000BD00120002584F8A80284F824502068A0
:10119000002103F065FB84F8A852206803F000FBEF
:1011A00001462068490405D5B0F8441021F4804177
:1011B000A0F8441003F0F4FA01462068890405D52C
:1011C000B0F8441021F40051A0F8441003F0E8FAFC
:1011D00001462068C90415D5B0F8401021F004017B
:1011E000A0F84010B0F8401021F00801A0F840101D
:1011F000204600F031FC2068B0F8441021F4805102
:10120000A0F8441003F0CCFA00054ED52068B0F8E1
:1012100000C0B0F804E0B0F808808789068A858AA3
:10122000018B828BB0F8403043F00103A0F84030CE
:10123000B0F8403023F00103A0F84030B0F844305B
:101240005B055FBFB0F844305FEA4353B0F8443009
:101250005FEA435303D4B0F844305B05EED5B0F8F1
:10126000443023F48063A0F84430A0F800C0A0F814
:1012700004E0A0F80880878106828582018382834A
:10128000B0F8401041F00801A0F84010B0F8441048
:1012900021F40061A0F84410B0F8401041F00401BE
:1012A000A0F84010204600F015FC206803F078FA02
:1012B000800509D52068B0F8441021F40071A0F829
:1012C0004410204600F0CCFB206803F069FAC0050A
:1012D00006D52068B0F8441021F48071A0F84410BD
:1012E00001B0BDE8F08F4FF0FF3504F52C7140F6EA
:1012F0000F7B009122E00901B0F850300C3101441D
:101300001944A1F800E4528E1FFA8EF3614603F0EF
:10131000AFFA2068317840F63F7330F821201A4048
:1013200048F2C003103B5A4020F821204FF0FF350F
:101330002068B0F94410A9423FF711AFB0F844203B
:1013400012F00F0942D030F829804FEA490A5FEACB
:10135000084140F1668130F81A1040F60F7501EA35
:101360000B01803120F81A1009EB890104EBC10B45
:101370009BF874110BF5B476002900F094809BF86B
:101380006B11022940F0A280B0F8502031785FEA5A
:10139000484302EBC10200EB420200F1CE80B2F8FA
:1013A0000C74DBF880216FF39F27D21B4FF00003F2
:1013B00038BF1A46CBF8802140F2D8805FEA4862F5
:1013C00040F1E480002F40F0EA800DE10188D20670
:1013D0002BD401EA0B0101F500410180B0F8501057
:1013E00094F8282001EBC20100EB4100B0F804049E
:1013F000E16B6FF39F2060640844E06320460021A6
:10140000FFF78AFD94F82400002891D0206C002872
:101410008ED194F82400216840F08000C0B2A1F879
:101420004C00002084F8240082E70A0568D40904EF
:101430007FF57EAF018801EA0B0180310180B0F8B1
:10144000501094F8682101EBC20100F20C4232F80E
:1014500011306FF39F23C4F88431A3B1D4F87C1109
:1014600089B1B4F86E2103F09FF9D4F87C01D4F867
:1014700084110844C4F87C0120460021FFF756FD82
:10148000206800F20C42B0F85010D4F87831002BEC
:1014900000F098813E2B00F2A08103F0010707EBDA
:1014A00053039B02A4E1B0F85010327801EBC20163
:1014B00000EB4101B1F80C746FF39F27002F00F08F
:1014C0009380DBF87C11BBF86E2189E0317848F21B
:1014D000C00330F821202A401A4320F8212030F898
:1014E0002120B0F85030520403EBC10100EB410160
:1014F00036D4B1F80C746FF39F27002F4FD173E0EF
:10150000B0F8501094F8682101EBC20100EB4101E2
:10151000B1F80C34B4F86E2100996FF39F23C4F82E
:10152000843103F041F92068018801EA0B01803120
:101530000180204600F0ACFAFAE6B2F80474DBF859
:1015400080216FF39F27D21B4FF0000338BF1A464C
:10155000CBF8802128D95FEA486234D4E7BB43E066
:10156000B1F804746FF39F27B7BB3DE030F821203A
:1015700043F60F731A404CF28003A3F500535A4010
:1015800020F821205FEA48623FF51CAF30F82120A7
:1015900048F2C0032A401A4320F8212027B3DBF881
:1015A0007C11BBF872211BE030F8212043F60F7349
:1015B0001A404CF28003A3F500535A4020F8212032
:1015C0005FEA4862CAD530F8212048F2C0032A40B9
:1015D0001A4320F821203FB1DBF87C11BBF87021C1
:1015E0003B4603F0E1F800E00027DBF88411DBE97B
:1015F0005F024FF0FF3539443844CBF88411CBF803
:101600007C011AB1DBF87801B84204D93178204660
:10161000FFF78CFC03E02068314602F003FD40F642
:101620000F7B5FEA08607FF583AE206809EB8901D4
:1016300004EBC10230F81A1002F1280601EA0B018E
:1016400001F500415FEAC85320F81A1047D592F817
:101650002B10022943D1B0F8503031785FEA486747
:1016600003EBC10300EB430355D4B3F80C34176C00
:101670006FF39F23FF1A4FF0000538BF2F46176402
:1016800040F285804FF0FF3A5FEA484708D430F8CF
:1016900021704CF2800507EA0B072F4320F82170D8
:1016A000154615F84C7F012F7FF433AE174657F8D7
:1016B000488F57E904EC57F8049C9C449944F04542
:1016C00047F80CCC47F8049C80F09E80B8F1000FDE
:1016D00000F0C5800023C6463B602B70C2E0B0F826
:1016E00050303178176C03EBC10300EB4303B3F8C0
:1016F000043400256FF39F23FF1A38BF2F46176469
:1017000041D9D16B576C1944D163F91851643146F2
:1017100002F088FC0AE6B3F80434176C6FF39F23D9
:10172000FF1A4FF0000538BF2F46176437D94FF026
:10173000FF3A5FEA484708D530F821704CF280053F
:1017400007EA0B072F4320F82170174617F84C5F64
:10175000012D7FF4DEAD154655F848EF55E9049CA0
:1017600055F8048C9C449844CE4545F80CCC45F87B
:10177000048C4DD24FF00008BEF1000F87F80080B6
:1017800049D19E4649E02046FFF7C6FBCEE52046FC
:10179000FFF7C2FB5FEA48403FF5BBAD06E02046DD
:1017A000FFF7BAFB5FEA48407FF5B3AD20683178B8
:1017B0004CF2800330F8212002EA0B021A4320F891
:1017C0002120A6E58B5A48F2000723F4F8438B52F8
:1017D0008B5ACFF6FF773B430AE05F09DE0608BF6E
:1017E00005EB531748F20003CFF6FF7343EA872354
:1017F0008B52018843F60F7211404CF28002A2F521
:1018000080525140018093E5A8EB0E033B6029E034
:10181000AEEB0908CE46C5F8008092F82930012BBE
:1018200013D0D3B909010431B0F850300144BEF1EE
:10183000000F01F5806131D0BEF13E0F3FD80EF0B0
:10184000010505EB5E05AD0244E00901B0F850303A
:10185000043101441944A1F800E4128E54E5002734
:101860002F709E4692F82930012B3FF444AD002B97
:101870007FF449AD09010C31B0F850300144BEF19C
:10188000000F01F5806111D0BEF13E0F25D80EF09A
:10189000010505EB5E05AD025D5234E55D5A25F4A8
:1018A000F8455D525D5A45F4004513E05D5A25F454
:1018B000F8455D525D5A45F400455D5223E54FEA17
:1018C0005E155FEACE6708BF0AEB5E154FF400476E
:1018D00047EA85255D52128E16E54FEA5E155FEAEE
:1018E000CE6708BF0AEB5E154FF4004747EA85252F
:1018F0005D5208E5F0B585B0F8B1044690F8A9024C
:1019000028B9002084F8A802204600F06FF80320D0
:1019100084F8A902206802F01FFB94E82F50D4E954
:1019200007678DE82050CDE9036702F07FFA30B1F8
:10193000022084F8A902012554E0012552E0206824
:101940000021002502F08AFF616861B301200023B5
:10195000002200BF03EB830304EBC30787F82820B2
:10196000D3B20132FB86D3B2994287F8290087F8B7
:101970002B50C7E90E553D64ECD80020002300220F
:1019800003EB830304EBC30787F868210132D3B26A
:10199000994287F8690187F86B01C7E95E00C7F8CB
:1019A0008001EDD800E0002104F10807D4E90565C5
:1019B00020688CCFD4E907CECDE9007602AE86E868
:1019C000205002F0BBFA20B1022084F8A9020125C0
:1019D00008E00025012084F8245084F8A90220683A
:1019E00002F0AAFA284605B0F0BD000080B582B02A
:1019F000006845F60041C4F2000188421CBF02B0F5
:101A000080BD41F21C00C4F202000168002241F4D2
:101A1000000101600068002100F4000001900198BD
:101A20001420FFF71DFA142002B0BDE88040FFF734
:101A300007BA000010B504468068022818BFFEF7F8
:101A40001DFDD4F8E802012101F066FDD4F8E8029A
:101A5000BDE8104001F01EBDD0F8E80201F044BD21
:101A6000D0F8E80201F04ABD10B5044690F8A8028B
:101A7000012804BF022010BD012084F8A80284F8C8
:101A80002410206802F0ECFE002084F8A80210BDAB
:101A9000D0F8E82200F52C71104601F053BD00008B
:101AA00010B5044690F8A802012804BF022010BD1A
:101AB0002068012184F8A81202F062FE204601216C
:101AC000FFF728FA206802F035FA002084F8A8020F
:101AD00010BD000010B50446D0F8E80201F086FD04
:101AE000A069002808BF10BD4EF61050CEF20000CD
:101AF000016841F00601016010BD000080B50128B9
:101B000018D0022835D0102831D141F20401C4F296
:101B100002010A6851F8040CC00128D5C2F38340C1
:101B20002CA3185CD2033BD440F60012C0F23D0255
:101B3000504341E041F20400C4F20200C16940F2A6
:101B400002320A40B2F5817F04BF4FF4004080BDED
:101B500001F44071B1F5407F1AD0B1F5007F06D194
:101B6000006A49F64041800701EAE07080BD00202C
:101B700080BD00F0A1F941F20401C4F2020109683C
:101B80000222C1F3813102EB4101B0FBF1F080BDD3
:101B900050F8040C4FF22441800301EAE07080BD4C
:101BA0000A6810A3C2F340429A5C41F20023C0F2DB
:101BB0007A03B3FBF2F250430968490248BF80BD83
:101BC0004AF6AB214000CAF6AA21A0FB0101480851
:101BD00080BD00BF02030405060708090A0B0C0DAF
:101BE0000E0F1010010200002DE9F04182B00446F2
:101BF000007841F21C06C007C4F202064AD03068E1
:101C000010F0805808D1306840F080503060306863
:101C100000F080500190019847F20007C4F20007DD
:101C20003868C00512D4386840F480703860FFF717
:101C300095F805463868C00508D4FFF78FF8401BB3
:101C40006428F7D9032002B0BDE8F081706810F471
:101C5000407012D0616801F4407188420DD0706804
:101C600040F24042C4F24222012320F4407113604A
:101C70000023C0071360716029D17068616820F487
:101C800040700843B8F1000F706003D1306820F055
:101C9000805030602068810707D556F8181CA2686C
:101CA00021F44041114346F8181CC00603D400201B
:101CB00002B0BDE8F08156F8180CE16820F480000D
:101CC000084346F8180C002002B0BDE8F081FFF789
:101CD00045F8054641F2883770688007CDD4FFF794
:101CE0003DF8401BB8424FF00300F5D9ECE7000087
:101CF0002DE9F04381B0002800F0858042F2000811
:101D0000C4F202080446D8F800000D4600F00700AF
:101D100088420CD2D8F8000020F007002843C8F809
:101D20000000D8F8000000F00700A8426BD120683E
:101D300041F204098107C4F2020917D5410705D50C
:101D4000D9F8001041F4E061C9F80010010705D589
:101D5000D9F8001041F46051C9F80010D9F800100A
:101D6000A26821F0F0011143C9F80010C00741D169
:101D7000D8F8000000F00700A8420CD9D8F80000FD
:101D800020F007002843C8F80000D8F8000000F051
:101D90000700A84237D12068410707D5D9F80010BD
:101DA000E26821F4E0611143C9F80010000708D58A
:101DB000D9F80000216920F4605040EAC100C9F858
:101DC0000000D9F8002002F00C00082841F20020A1
:101DD000C0F27A004ED146F2DC73C2F38341C0F602
:101DE0000003595CD20339D440F60010C0F23D0024
:101DF00048433FE06068022809D0012829D159F8FA
:101E0000041C890307D4012001B0BDE8F08359F810
:101E1000041C8901F7D5D9F8001021F0030108430B
:101E2000C9F80000FEF79AFF064641F2883700BF66
:101E3000D9F80000616800F00C00B0EB810F97D07A
:101E4000FEF78CFF801BB842F2D9032001B0BDE839
:101E5000F08359F8041C8907D5D5DCE7D9F80020B0
:101E600046F2C273C2F34042C0F600039A5C484394
:101E7000B0FBF2F0D9F8001046F2C472C1F30311BE
:101E8000C0F60002515C40F21C0220FA01F140F25F
:101E90008010C2F200000068C2F200021160FEF77A
:101EA00085FF002001B0BDE8F083000040F21C0077
:101EB000C2F200000068704740F21C0041F20401C9
:101EC000C2F20000C4F202010068096846F2D4724E
:101ED000C1F3C221C0F60002515CC8407047000047
:101EE0002DE9F04182B0002868D00446007841F224
:101EF0000006C007C4F2020625D0706800F00C008E
:101F000004281BD0706800F00C00082802D170680B
:101F1000C00313D46068002800F06281B0F5A02FE0
:101F200000F07681B0F5803F00F07681306820F4D3
:101F300080303060306820F4802070E130688003A9
:101F400001D56068D0B32078800718D5706810F08C
:101F50000C0F07D0706800F00C0008286DD1706875
:101F6000C0036AD43068800702D52069012825D1D2
:101F70003068616920F0F80040EAC10030602078E4
:101F800000071FD42078400732D4E56995B1706806
:101F900000F00C00082840F08D80012D0ED07068F4
:101FA000216A00F480328A4208D1616A00F470101C
:101FB000884203D1002002B0BDE8F081012002B0C8
:101FC000BDE8F081A069002860D00020C4F2422062
:101FD0000121C0F88014FEF7C1FE0546706A800733
:101FE00000F18A80FEF7BAFE401B0228F6D924E1F0
:101FF000F06910F0805808D1F06940F08050F0612D
:10200000F06900F080500090009847F20007C4F299
:1020100000073868C00527D4386840F480703860FD
:10202000FEF79CFE054600BF3868C0051CD4FEF7CD
:1020300095FE401B6428F7D9FFE02069002840F294
:102040000000C4F2422000F0818001210160FEF70F
:1020500085FE0546306880073FF58AAFFEF77EFEB5
:10206000401B0228F6D9E8E0E068002800F08080F4
:10207000052800F09680012800F09780306A20F053
:1020800001003062306A20F0040091E00020C4F2C8
:1020900042200021C0F88014FEF760FE054600BF14
:1020A000706A80077FF56EAFFEF758FE401B02286E
:1020B000F6D9C2E00027C4F2422700203866FEF7B6
:1020C0004DFE022D05460BD13068800140F1B980EC
:1020D000FEF744FE401B02284FF00300F4D96AE7E4
:1020E000306880017FF566AFFEF738FE401B02289E
:1020F0004FF00300F4D95EE740F21C00C2F200008A
:10210000006844F6D351C1F26201A0FB0101480A04
:10211000019000BF00BF0198411E002801913FF4CB
:1021200031AF00BF0198411E002801913FF42AAF52
:1021300000BF0198411E002801913FF423AF00BF6A
:102140000198411E00280191E4D11BE700210160A4
:10215000FEF704FE054600BF306880077FF50FAF2D
:10216000FEF7FCFD401B02284FF00300F4D922E7E4
:10217000306A20F001003062306A20F004003062E2
:10218000FEF7ECFD054641F2883700BF306A800754
:102190001DD5FEF7E3FD401BB8424FF00300F5D913
:1021A00009E7306A40F004003062306A40F0010014
:1021B0003062FEF7D3FD054641F28837306A80076A
:1021C00005D4FEF7CBFD401BB842F7D935E0B8F196
:1021D000000F7FF4DAAEF06920F08050F061D4E6B1
:1021E000306820F480303060306820F48020306027
:1021F000FEF7B4FD054600BF306880037FF5A3AE4F
:10220000FEF7ACFD401B64284FF00300F4D9D2E682
:10221000306840F480203060306840F480303060B6
:10222000FEF79CFD054600BF306880033FF58BAE8E
:10223000FEF794FD401B6428F6D9032002B0BDE8E8
:10224000F081206AB0F5803F05D17168A26821F461
:102250000031114371607168626A21F47411104396
:102260000843706001203866FEF778FD044600BF21
:10227000306880013FF59EAEFEF770FD001B02281E
:102280004FF00300F4D996E6411E0020B0EB116F29
:102290001CBF012070474EF21002CEF200025160C6
:1022A0004EF62351CEF20001F0230B70072190600F
:1022B0001160704710B590F83C20012A4FF00202DF
:1022C00031D0012380F83C3080F83D200268D2F8FC
:1022D00004E0D2F808C00C682EF07003234340F2EB
:1022E000FF74C4F20004A242536005DCB2F1804FD7
:1022F0000ED040F2004307E042F60043C4F201036F
:102300009A4205D040F60003C4F200039A4204D179
:1023100049682CF08003194391600121002280F864
:102320003D1080F83C20104610BD0000002804BF7E
:10233000012070472DE9F04F81B0044690F83D0030
:102340000D4628B9002084F83C00204600F08AF8A9
:10235000022084F83D00206844F20702816840F2C0
:10236000FF73914381600268C4F2000342F6004C9F
:102370009842C4F2010C05DCB0F1804F0AD040F263
:10238000004103E0604505D040F60001C4F20001C1
:10239000884203D1A16822F070020A43984205DC0A
:1023A000B0F1804F0AD040F2004103E0604505D013
:1023B00040F60001C4F20001884203D1216922F4F1
:1023C00040720A43A36922F08001D4F804E0E26875
:1023D000194360450160C262C0F828E002D161691A
:1023E000CCF830104FF00109C0F814908268D0F892
:1023F00018E0D0F820C0D5E90038D5E9027B43EADF
:10240000020AAB694FF6FF712EEA010E47EA032379
:102410004FF6FC47BB43D5E907724BEA0E012E6924
:10242000194341EA072141EA061141EA02312CF041
:1024300022026B6942EA080242EA0312C0F808A0CD
:102440008161026284F8469084F83E9084F83F905F
:1024500084F8429084F8439084F83D90002001B0C5
:10246000BDE8F08F70B586B000210591CDE903116C
:10247000006840F20042C4F200029042029149D04A
:10248000B0F1804F67D141F21800C4F202004168F8
:1024900040F6000441F0010141604168C4F20104CA
:1024A00001F0010101910199016802AD41F00401BF
:1024B00001600168002601F00401019101990168A1
:1024C00041F0080101600068294600F00800019011
:1024D00001984FF4004002902046CDE90366FEF7D4
:1024E00025FB0820CDE9020604F580602946049604
:1024F000FEF71CFB0420C4F2010001684FF6FF4206
:10250000CFF6FF02114041F0E06141F480710160BB
:1025100006B070BD41F21800C4F20200426842F0F9
:1025200002024260426802F002020192019A0268CD
:1025300042F004020260006800F00400019001987B
:10254000C020CDE9020140F600000491C4F2010070
:1025500002A9FEF7EBFA06B070BD000080B590F856
:102560003E2090F83F3090F842E090F843C00429B4
:1025700009D0B1B9012A4FF0010208BFBEF1010F25
:1025800032D0104680BD012B4FF0010208BFBCF1D4
:10259000010FF6D1022180F83F1080F84310006847
:1025A0001EE0012A4FF0010208BF012BE9D1BEF164
:1025B000010FE6D1BCF1010FE3D1022280F83E20E9
:1025C00080F83F2080F8422080F8432089B10068DD
:1025D000016A21F001010162016A41F00101016219
:1025E00010216FF0100208E0022180F83E1080F800
:1025F0004210006801216FF00102036A1A40026272
:10260000026A114301620168002241F00101016088
:10261000104680BDFEE700002DE9F04784B08046FB
:102620000020C8F8000081B10121CDE9011103901B
:1026300041F2B800C2F2000001A9FDF725FFB0B1D8
:10264000EFF3108072B600BFFEE701210190CDE9E3
:10265000021041F2B800C2F2000001A9FDF714FF18
:1026600000284AD0EFF3108072B600BFFEE741F2B7
:10267000B80941F2010A00264FF47A75C2F2000946
:10268000002700BF4846FEF765F948466421FEF77B
:1026900083F84846FDF7A2FF0644C8F80060FDF73E
:1026A000C4FD04465046FDF7C0FD0146204604F037
:1026B00074F8FDF7C3FD82463846FDF7B6FD0146C6
:1026C000204604F056F8FDF7B9FD013D0746D9D183
:1026D00044F6D350C1F2620086FB0001881100EB82
:1026E000D17441F2B800C2F20000C8F80040FEF711
:1026F000D1F9A4EB0A003D1B44E041F2B80941F2D4
:10270000010A00264FF47A75C2F20009002700BFC3
:102710004846FEF71FF948466421FEF73DF8484653
:10272000FDF75CFF0644C8F80060FDF77EFD044637
:102730005046FDF77AFD0146204604F02EF8FDF7DD
:102740007DFD82463846FDF770FD0146204604F0C7
:1027500010F8FDF773FD013D0746D9D144F6D3507B
:10276000C1F2620086FB0001881100EBD17441F2D6
:10277000B800C2F20000C8F80040FEF78BF9A4EBE5
:102780000A003D1BFDF751FD04462846FDF74DFDAF
:102790000146204603F0EDFF4FF08341FDF7EDFCCD
:1027A000FDF74CFDC8F8040004B0BDE8F087000058
:1027B00080B541F2B80042F2004EC2F20000C4F20D
:1027C000010E4FF4807C012300224FF4602103733B
:1027D0000275C161C0E900E2C0F808C00361FDF7FD
:1027E00001FF002808BF80BDBDE88040FDF746BE60
:1027F0002DE9F04786B0002541F218000595C4F296
:102800000200016840F6000841F010010160016813
:10281000C4F2010801F01001019101990168002240
:1028200041F02001016001684FF4E06A01F02001ED
:1028300001910199016841F004010160016801F012
:10284000040101910199016841F0080101600068EB
:102850004FF4E06100F00800019001984046FEF757
:1028600077FA08F58064204648F2F031002248F2F9
:10287000F039FEF76DFA4FF4005008F5006702AE2C
:10288000CDE90205384631460495FEF74FF94FF47D
:102890000040CDE90205384631460495FEF746F979
:1028A0003C20CDE90205404631460495FEF73EF94D
:1028B00047F60740CDE90205204631460495FEF76C
:1028C00035F9CDF808A04FF0010A022740463146FD
:1028D000CDE903A50597FEF729F920463146CDE954
:1028E000029ACDE90457FEF721F906B0BDE8F0875A
:1028F00010B58CB041F2D4300024C2F200004FF089
:102900008041C0E9001401214FF6FF72CDE90314A4
:10291000CDE90514CDE90744CDE9091403A9CDE9B2
:102920000044C0E90242046184610B94FFF7FEFC9D
:10293000002818BFFDF7A2FD41F2D430C2F200001A
:102940006946CDE90044FFF7B5FC002818BFFDF744
:1029500095FD0CB010BD000010B58CB041F21C40CC
:1029600040F200410024C2F20000C4F20001C0E9BC
:10297000001401214FF6FF72CDE90314CDE90514CF
:10298000CDE90744CDE9091403A9CDE90044C0E924
:102990000242046184610B94FFF7C8FC002818BF51
:1029A000FDF76CFD41F21C40C2F200006946CDE922
:1029B0000044FFF77FFC002818BFFDF75FFD0CB057
:1029C00010BD000080B540F6F45040F20001C2F2A4
:1029D0000000C2F20001002200F0FAFB002818BF3C
:1029E000FDF74CFD40F6F45040F22001C2F2000029
:1029F000C2F2000100F022FE002818BFFDF73EFDE4
:102A000040F6F45040F24411C2F20000C2F200015C
:102A100000F056F9002818BFFDF730FD40F6F450DD
:102A2000C2F2000000F020FE002808BF80BDBDE813
:102A30008040FDF723BD0000FEE70000FEE7000038
:102A40007047000070470000FEF78EB9B0B594B033
:102A5000002401204FF48031CDE90F44CDE90D442D
:102A60000A90CDE90B140E9002254FF4E010CDE949
:102A7000115113900AA80994CDE90744CDE9054402
:102A8000CDE90344CDE90144FFF72AFA18B1EFF389
:102A9000108072B6FEE70F20CDE905054FF4806087
:102AA0000794CDE9080405A80221FFF721F920B118
:102AB000EFF3108072B600BFFEE7122001904FF4D2
:102AC000004003900020049001A8FFF78DF820B18A
:102AD000EFF3108072B600BFFEE714B0B0BD000087
:102AE0007047000010B5D0F8B822C2B101EB8103E5
:102AF00000EB830E5EF81C4F64B1D0F8C0C201EB4E
:102B000081030CEBC303D3F838C0B4FBFCF303FB25
:102B10001C4333B100242046C2F8144210BD0220E9
:102B200010BD002400220023CEF8004000F068FD14
:102B3000204610BDB0B5D0F8B852044600F02AFCCB
:102B4000D4F8B812C5F80C0249B1D4F8BC0205F5A6
:102B50000371C268D5F8040290470020B0BD02207E
:102B6000B0BD0000B0B58121044600F05BFB00253C
:102B700020460121E56200F055FB20468221C4F881
:102B80006C5100F04FFBD4F8B802256448B1D4F87A
:102B9000BC0240688047D4F8B80201F015F8C4F8C8
:102BA000B8520020B0BD000010B5D0F8BC1269B119
:102BB000D0F8B84294F80002FF2807D08B6894F848
:102BC000012221469847FF2084F80002002010BD12
:102BD000014640F2E0000A22C2F200000A8070477B
:102BE000014640F258004322C2F200000A807047BA
:102BF000014640F29C004322C2F200000A80704766
:102C0000014640F2EC004322C2F200000A80704705
:102C1000F0B581B00546007C4027002808BF4FF47E
:102C200000772846812102223B46402400F00AFC1E
:102C300001262846012102223B46EE6200F002FCFA
:102C40002846822103220823C5F86C6100F0FAFBB4
:102C50004FF407702E6400F0B9FFC5F8B802A8B1B0
:102C60000746D5F8BC02006880470026C7F8146202
:102C7000C7F81862287CD7F80422002808BF4FF450
:102C8000007428460121234600F0F2FB304601B0D3
:102C9000F0BD000080B5D0F8B81271B190F810C046
:102CA000D1F8042240230121BCF1000F08BF4FF4EA
:102CB000007300F0DDFB002080BD022080BD00001D
:102CC00000290EBF0220C0F8BC120020704700008F
:102CD000D0F8B8220020C2F804127047D0F8B832F9
:102CE0000020C3F80812C3F81022704770B582B0F4
:102CF0000446D0F8B86208780D46002210F0600152
:102D00008DF80720ADF8042010D020291FD1EA88C3
:102D10001AB300062AD46878314686F800022046A5
:102D200086F8012200F09CF8002455E068780B2812
:102D300029D00A282DD0C0BB94F89C0203283AD190
:102D400001A92046022200F0A5F8002444E0204614
:102D5000294600F079F802243EE0D4F8BC02294666
:102D60008368687800220024984735E0D4F8BC02D4
:102D70003146836868789847EA882046314600F0F3
:102D800089F8002428E094F89C02032819D1002433
:102D900022E094F89C02032819D10DF10701204686
:102DA000012200F077F8002416E02046294600F0C2
:102DB0004BF8022410E02046294600F045F8022492
:102DC0000AE02046294600F03FF8022404E02046AD
:102DD000294600F039F80224204602B070BD0000F8
:102DE00080B5D0F8B8223AB1D2F8141200294FF0C9
:102DF000010103D0084680BD022080BDC2F8141234
:102E0000D2F81012D2F8082201638BB2812100F0AF
:102E1000F7FB0021084680BD80B5D0F8B422526887
:102E20009047002080BD000080B513460A4600216F
:102E300000F01EFB002080BD80B513460A4600212D
:102E400000F0DEFB002080BD10B58021044600F0BC
:102E5000A9FB20460021BDE8104000F0A3BB000004
:102E600080B513460A460321C0F894120021C0E938
:102E7000573300F0FDFA002080BD000080B5052129
:102E8000C0F8941200210022002300F0F1FA002083
:102E900080BD000080B513460A460221C0F8941296
:102EA0000021C0E9073300F0ABFB002080BD00002B
:102EB00080B50421C0F8941200210022002300F004
:102EC0009FFB002080BD000010B540F2C414C2F288
:102ED00000040A4602A0214600F010F9204610BD69
:102EE00043444320436F6E666967000040F2301030
:102EF0001222C2F200000A807047000010B540F2B2
:102F0000C414C2F200040A4602A0214600F0F6F8FA
:102F1000204610BD43444320496E74657266616368
:102F20006500000040F254100422C2F200000A8042
:102F30007047000010B540F2C414C2F200040A4603
:102F400002A0214600F0DAF8204610BD53544D6926
:102F500063726F656C656374726F6E696373000092
:102F600010B540F2C414C2F200040A4602A0214681
:102F700000F0C4F8204610BD53544D33322056693A
:102F8000727475616C20436F6D506F727400000035
:102F9000B0B54FF2E870C1F6FF70026883684FF079
:102FA0001A0C9B18A1F800C000F0A3804FF0370C5A
:102FB000190F0CEB13724068B3F1204F38BF01F1C9
:102FC000300240F25811C2F20001C3F303648A7068
:102FD0001A014FF0000E04F1370581F803E0B2F159
:102FE000204F38BF04F13005C3F303540D711A02AA
:102FF00004F1370581F805E0B2F1204F38BF04F144
:103000003005C3F303448D711A0304F1370581F8C9
:1030100007E0B2F1204F38BF04F13005C3F30334A9
:103020000D721A0404F1370581F809E0B2F1204F5E
:1030300038BF04F13005C3F303248D721A0504F17F
:10304000370581F80BE0B2F1204F38BF04F13005AD
:103050001A06C3F303140D7304F13705B2F1204FC0
:103060004FEA037203F00F0381F80DE038BF04F15B
:10307000300503F137048D7381F80FE0B2F1204F72
:1030800038BF03F130040CEB10730C7481F811E0BD
:10309000020FB0F1204F38BF02F130038B74C0F340
:1030A0000363020103F1370581F813E0B2F1204F09
:1030B00038BF03F130050202C0F303530D7503F16D
:1030C0003705B2F1204F4FEA0032C0F3034081F8D8
:1030D00015E038BF03F1300500F137038D7581F835
:1030E00017E0B2F1204F38BF00F130030B7681F8C2
:1030F00019E040F25810C2F20000B0BD10B500282F
:1031000064D00378B3B100F1020E4FF0000C00BFA1
:103110001EF8013C8BB19EF800308BB19EF8013057
:103120008BB19EF802300CF1040C002B0EF1040E52
:10313000EED10AE04FF0000C07E04CF0010C04E087
:103140004CF0020C01E04CF0030C5FFA8CFC022303
:1031500003EB4C03138003220B704A7090F800E0DD
:10316000BEF1000F32D0023002224FF0000C19E005
:10317000141DE4B244F0010E0B5501F80EC0437863
:10318000002B08BF10BD941DE4B244F0010E0B5596
:1031900001F80EC090F802E00832BEF1000F00F115
:1031A000040013D0D3B243F0010401F803E001F8A6
:1031B00004C010F8013C4BB1941CE4B244F0010E81
:1031C0000B5501F80EC00378002BD1D110BD0000C3
:1031D000002804BF0220704780B5D0F8B432002B1D
:1031E0001CBF0023C0F8B432002918BFC0F8B012C9
:1031F000012180F89C12027000F0D0F8002080BD00
:1032000080B5D0F8C002FDF7C3FE032884BF0220BA
:1032100080BD40F20021C000C0F2012121FA00F07F
:10322000C0B280BD80B5D0F8C002FDF78BFE032888
:1032300084BF022080BD40F20021C000C0F2012105
:1032400021FA00F0C0B280BDB0B5044669B1D4F82F
:10325000B40242693AB194F89C02032803D1204693
:103260009047002050E00220B0BDD4F8940200281E
:1032700018BF042804D12046802100F093F93AE0D9
:10328000022838D1D4E90810814208D9081A83B23B
:103290002062204611461A46FFF7CEFD13E0E16991
:1032A000814217D3B1FBF0F202FB101090B9D4F8B1
:1032B000980281420ED22046002100220025FFF70D
:1032C000BBFDC4F89852204600210022002300F0E4
:1032D000CFF810E0D4F8B402C16829B194F89C0288
:1032E000032801D1204688472046802100F05AF962
:1032F0002046FFF7C3FD94F8A00201284FF000001C
:1033000004BF84F8A002B0BDB0BD0000B0B5044653
:1033100069B1D4F8B40282693AB194F89C020328E6
:1033200003D12046904700251AE00220B0BDD4F812
:1033300094020025052815D0032811D1D4E958108E
:10334000814217D9091AC4F86011814238BF084672
:1033500083B2204611461A46FFF766FD0020B0BD35
:103360002846B0BD20460021C4F8945200F01AF956
:103370002846B0BDD4F8B402016929B194F89C0282
:10338000032801D1204688472046FFF791FD002001
:10339000B0BD0000D0F8C002FDF72ABE10B504464B
:1033A00041F2E80045F60041C2F20000C4F200011B
:1033B000C0F8E842C4F8C0020822022380E80E00E8
:1033C0000021C0E906110162FEF794FA002818BF37
:1033D000FDF754F8D4F8C002002100221823FDF7AD
:1033E0007BFDD4F8C002802100225823FDF774FD34
:1033F000D4F8C00281210022C023FDF76DFDD4F86E
:10340000C002012100224FF48873FDF765FDD4F856
:10341000C002822100224FF48073FDF75DFD002081
:1034200010BD0000D0F8C00201F07F0202EB820262
:1034300000EBC20000F12A02090658BF00F5B57280
:103440001078704780B59446D0F8C0021A4663469B
:10345000FDF7D8FD032884BF022080BD40F2002183
:10346000C000C0F2012121FA00F0C0B280BD00000E
:1034700080B5D0F8C002FDF7F5FD032884BF022017
:1034800080BD40F20021C000C0F2012121FA00F00D
:10349000C0B280BDF0B581B00021002240230446B7
:1034A00000254026FFF7CEFF01272046802100227D
:1034B0004023C4F85871C4F86461FFF7C3FFD4F81F
:1034C000B802A761666284F89C72C4F89452656081
:1034D000C4F8A45228B1D4F8B402002142682046AE
:1034E0009047002001B0F0BD90F89C12042904BF61
:1034F00090F89D1280F89C120020704780B590F8DB
:103500009C12032905D1D0F8B412C969002918BF4B
:103510008847002080BD00000246002011747047DB
:1035200080B5D0F8C002FEF79FFA032884BF0220BE
:1035300080BD40F20021C000C0F2012121FA00F05C
:10354000C0B280BDB0B500F52A750446284600F02B
:1035500069F894F8A8020121B4F8AE22C4F89412D4
:1035600000F01F010229C4F8982208D001290CD0CC
:1035700089B92046294600F07DF80020B0BD2046DC
:10358000294600F043FA0020B0BD2046294600F04D
:10359000E3FA0020B0BD00F08001204600F002F800
:1035A0000020B0BD80B5D0F8C002FDF775FD03283E
:1035B00084BF022080BD40F20021C000C0F2012182
:1035C00021FA00F0C0B280BD80B5D0F8C002FEF78D
:1035D00067FA032884BF022080BD40F20021C000AA
:1035E000C0F2012121FA00F0C0B280BD014690F87E
:1035F0009C02042281F89D02002081F89C227047E1
:1036000080B5D0F8C002FDF77DFD032884BF0220FD
:1036100080BD40F20021C000C0F2012121FA00F07B
:10362000C0B280BD0A7802704A7842704A884280EF
:103630008A888280C988C1807047000000290EBF37
:103640000220C0F8B41200207047000080B5D0F806
:10365000B42232B112689047002818BF0120400000
:1036600080BD022080BD000080B5FFF7ADFF0020C7
:1036700080BD0000B0B582B00D460978044611F057
:1036800060010AD0402901D0202928D1D4F8B40201
:10369000294682682046904729E06878092839D869
:1036A000DFE800F005283841386F84384B5D94F826
:1036B0009C020138022800F29A80E888022840F033
:1036C000CD80D4F8A4020322002808BF012221469D
:1036D00041F80C2F20460222FFF7DCFB07E02046D2
:1036E0008021FFF75FFF20460021FFF75BFF0020EE
:1036F00002B0B0BD94F89C020138022800F280802C
:1037000068880128F3D10020C4F8A4022046FFF7FE
:10371000CFFBECE720468021FFF744FF2046002145
:10372000FFF740FFE3E768880128E0D10120C4F8F3
:10373000A4022046FFF7BCFBD9E7E888012868D13E
:1037400094F89C02411E022980F0918000202146BD
:1037500041F8080F20460122FFF79CFBC7E7688865
:1037600040F2C015C1B2C2F200050229287059D337
:1037700020468021FFF716FF20460021FFF712FFA9
:10378000B5E7A88850BBE88840BB68887F2825D863
:1037900094F89C12032940F0EC8020468021FFF72A
:1037A00001FF20460021FFF7FDFEA0E768884FF0EB
:1037B000FF3101EB102100220629ADF8062000F2AE
:1037C0001781DFE811F0070072005C001501150198
:1037D0007F008A00D4F8B0020268EFE02046802122
:1037E000FFF7E0FE20460021FFF7DCFE7FE72046E2
:1037F0008021FFF7D7FE20460021FFF7D3FE76E7B2
:1038000020468021FFF7CEFE20460021FFF7CAFEAA
:103810006DE720468021FFF7C5FE20460021FFF717
:10382000C1FE64E794F89C02032835D0022862D1D7
:10383000002900F07680032084F89C022046616015
:10384000FFF704FF022840F07C8020468021FFF72C
:10385000A9FE20460021FFF7A5FE48E7204680216B
:10386000FFF7A0FE20460021FFF79CFE3FE703285C
:103870004ED1211D20460122FFF70CFB37E7C0B2D5
:10388000052800F2B580DFE800F00385898D919569
:10389000D4F8B002426890E0002946D060688842BF
:1038A00053D12046FFF704FB21E7217CD4F8B40272
:1038B00000290CBF816AC16A0DF1060088470146E4
:1038C000022016E0207C002840F09280D4F8B40258
:1038D000416B0DF10600884774E0207C002840F021
:1038E0008780D4F8B402016B0DF1060088470146C9
:1038F0000720487067E020468021FFF753FE2046EE
:103900000021FFF74FFE29782046FFF785FAEEE603
:1039100020468021FFF746FE20460021FFF742FEA9
:10392000E5E62046FFF7C4FAE1E6022084F89C02AF
:10393000002060602046FFF76FFA2046FFF7B8FAD4
:10394000D5E62046FFF7B4FAD1E6C1B22046FFF72C
:1039500063FA297820466160FFF778FE022850D18B
:1039600020468021FFF71EFE20460021FFF71AFEA9
:10397000BDE6C5B284F89E0220462946FFF7D0FD79
:103980002046FFF795FA002D0CBF0120022084F895
:103990009C02ACE6D4F8B00282680EE0D4F8B00223
:1039A000C2680AE0D4F8B002026906E0D4F8B002B6
:1039B000426902E0D4F8B0028269CAB1207C0DF1FC
:1039C000060190470146BDF8060048B1EA883AB1C1
:1039D000904238BF02462046ADF80620FFF75AFA5B
:1039E000E88800287FF483AE2046FFF761FA7EE680
:1039F00020468021FFF7D6FD20460021FFF7D2FDAB
:103A000075E62046FFF754FA71E60000B0B50A46A5
:103A10000978044611F060010BD0402901D020291B
:103A200020D1D4F8B402114683682046984700207C
:103A3000B0BD50781179F8B1012838D0032865D18C
:103A400094F89C02032836D15088002870D141F0A8
:103A5000800080286CD0D088002869D12046FFF7EC
:103A6000A1FD65E020468021FFF79CFD2046002156
:103A7000FFF798FD0020B0BD94F89C02032826D0E3
:103A8000022843D141F0800080283FD101F07F001F
:103A900000EB800004EB800000F11402090658BF1F
:103AA00000F5AA7200201060204611464EE094F8FE
:103AB0009C02032834D0022828D141F080008028BD
:103AC00024D02046FFF76EFD2046802124E001F03F
:103AD0000F0202EB820211F0800004EB820214BF9D
:103AE0009269D2F858218AB101F07F0202EB82027A
:103AF00004EB820202F11405002841F0800008BFA7
:103B000002F5AA75802818D100201CE020468021EB
:103B1000FFF748FD20460021FFF744FD0020B0BD1F
:103B200050880028A6D1480602D02046FFF768FB3F
:103B30002046FFF7BDF90020B0BD2046FFF772FC1C
:103B40000028E1D001202860204629460222FFF704
:103B5000A1F90020B0BD0000B0B50D4609780446BB
:103B600011F0600118BF402912D194F89C0201386D
:103B7000022803D8A88810F0FE0F15D02046802117
:103B8000FFF710FD20460021FFF70CFD0020B0BD1F
:103B90002029EAD020468021FFF704FD204600219D
:103BA000FFF700FD0020B0BDD4F8B40229468268BA
:103BB000204690470028F5D1E8880028F2D1204619
:103BC000FFF776F90020B0BD7047000040F2C43026
:103BD000C2F20000704700002DE9F0410C78024667
:103BE00091F803E000EB840830F8240047F2706598
:103BF000BEF1030F20EA050507D80020DFE80EF02C
:103C000002070D0A45F4007506E0012005E045F4C1
:103C1000806501E045F4C065002048F2800C45EA6B
:103C20000C03A8F80030B8F8003040F60F752B40B0
:103C3000234343EA0C03A8F800300B7B002B51D040
:103C4000B8F8003040F60F652B400CF580752B431B
:103C5000A8F80030B2F850300E8902F580672501CF
:103C600007EB041426F00106E652B2F850204C8906
:103C700005F108033B4424F001049C524978B8F84C
:103C80000020002902F4804154D049B1B8F8001056
:103C900040F60F7211400CF580421143A8F8001055
:103CA000B8F80010490609D5B8F8001040F60F72B0
:103CB00011400CF140021143A8F80010B8F80010B0
:103CC00040F63F7211400CF120024A40BEF1010F54
:103CD00008BF41EA0C02A8F80020B8F8001043F62B
:103CE0000F724EE04B78B2F85050002B4FEA04149C
:103CF0004ED0C98822442A4421F00101A2F80014C0
:103D0000B8F80010490609D5B8F8001040F60F724F
:103D100011400CF140021143A8F80010B8F800104F
:103D200040F63F72BEF1010F01EA02012AD00CF108
:103D3000200275E049B1B8F8001040F60F7211404A
:103D40000CF580421143A8F80010B8F8001049069D
:103D500009D5B8F8001040F60F7211400CF140027E
:103D60001143A8F80010B8F8001043F60F72114084
:103D70000CF540525140A8F80010B8F8001040F679
:103D80003F72114041EA0C01A8F80010BDE8F08133
:103D9000CF8844F0080E02F580639E4427F00107A7
:103DA0002EF80570B2F850200D6944F00C0119444A
:103DB0003DB13E2D11D805F0010303EB55039D02E3
:103DC00018E0535A48F2000723F4F8435352535A69
:103DD000CFF6FF7743EA07050CE06B094FF0FF379A
:103DE000EC0608BF07EB551348F20007CFF6FF7744
:103DF00047EA83255552B8F80010490409D5B8F8A8
:103E0000001040F60F7211400CF580421143A8F8E3
:103E10000010B8F8001043F60F7211400CF5405234
:103E20005140A8F80010BDE8F08100000020704764
:103E300080B50B784A78097B30F823E048F2C00C53
:103E400000EB830341B30EF4804062B338B11888AD
:103E500040F60F7108400CF57F5108431880188810
:103E6000400606D5188840F60F71084040EA0C005D
:103E70001880188840F60F7108400CF57F510843F0
:103E80001880188840F63F710840ACF140010843A3
:103E9000188043F60F7045E052B35FEA4E602DD4B0
:103EA00040F63F703EE038B1188840F60F71084088
:103EB0000CF57F51084318801888400606D51888ED
:103EC00040F60F71084040EA0C001880188840F650
:103ED0000F71084040EA0C001880188843F60F71F3
:103EE0000840ACF140010843188040F63F7019E0EB
:103EF0005FEA4E400CD443F60F7013E0188840F68A
:103F00000F71084040EA0C00188040F63F7009E04D
:103F1000188840F60F7108400CF57F51084318804F
:103F200043F60F7019880840ACF1400101430020AE
:103F3000198080BD00207047002070470146012095
:103F4000A1F8400000220020A1F84020A1F8442060
:103F5000A1F85020704700000146B0F8400044F23C
:103F6000FF0202400020A1F8402070470020704767
:103F700080B50A7B0AB1002080BD0A784B7830F802
:103F800022C04FEA4202C3B15FEA4C6348F2A00C80
:103F90000BD530F812E040F60F730EEA030E0CF169
:103FA000200343EA0E0320F81230C9780129E2D039
:103FB00030F8121040F63F7312E05FEA4C414BF2CA
:103FC000800C09D530F8123040F60F7119400CF50D
:103FD0008053194320F8121030F8121043F60F7373
:103FE000194081EA0C0120F81210002080BD000069
:103FF00002460B78487832F823C040F63F7100281B
:1040000048F2900008BF43F60F71CFF6FF7008BF6B
:1040100000F57F6001EA0C014140002022F82310E6
:10402000704700002DE9F04F83B04B78012B55D13C
:104030008A690B690F7B9A4288BF1A46002F48F2A3
:10404000800B6CD0CF78022F40F0A8800E780F6ADA
:1040500030F8265040F60F644FEA460E9F4205EABC
:10406000040540F2D2800BF580742543A7EB0208CB
:1040700020F81E50C1F8208030F81E70B0F8505063
:104080007F064FEA0617029700F1248147F00407E4
:1040900000F58066374401967A5397B2D1F814A0A0
:1040A00001370026B6EB570F00F0AA820E897D0873
:1040B000019F6C1E07EB460C15F00306D14600F07D
:1040C0008C8239F802BB6746012E27F804BB40F00A
:1040D0004282BC46254648F2800B7EE20A7B002ADB
:1040E0003FD0CA78012A6BD0022A40F08A80002B88
:1040F00040F0F981B0F850500A7800F5806713015C
:104100000A691E1D002A3D4400F07D813E2A00F20E
:10411000A68102F0010404EB5204A402ADE193B2C3
:1041200001330027B7EB530F00F0C4805F08CB8842
:10413000D1F8148000F5806E0EEB430917F00304EC
:10414000A7F1010C00F00E81464636F8023B4D46C1
:10415000012C25F8043B40F0E880B046A9466746AC
:1041600000E18B690A699F1A38BF00278F61B0F898
:1041700050700E7888BF1346320107440C32002B72
:1041800007F5806700F062813E2B00F2968003F015
:10419000010606EB53039B02D353C7E10B7830F8BB
:1041A0002360B0F8507076064FEA031658D446F0F4
:1041B000040606443744A7F8002401F1080757E035
:1041C0000F698A69D61B38BF002688BF3A46002B84
:1041D0008E6140F0AB81B0F850500B78002A4FEA66
:1041E000031700F5806307F104061D4400F02181E8
:1041F0003E2A00F2508102F0010404EB5204A402B2
:1042000057E1012003B0BDE8F08F45EA0B0220F82A
:104210001E203201161DBAB201320023B0F85050F0
:10422000B3EB520F00F580631E44775300F0E48037
:104230000F8952084E6903EB470512F00307A2F1FC
:10424000010C00F0AB81334633F8024B2946012FB5
:1042500021F8044B40F0A4801E460D4662469DE1C5
:1042600046F00C0606443744A7F8002401F10A077B
:1042700092B201320026B6EB520F4FEA430E00F025
:10428000B1803B8852084E6900EB430101F580651F
:1042900012F00307A2F1010C00F09080314631F8D2
:1042A000024B2B46012F23F8044B4AD10E461D46E4
:1042B000624683E000F5806E68E05E094FF0FF35EE
:1042C000DC0608BF05EB53164FF4004343EA862390
:1042D000D3532BE147F00C0600F5806C6644725313
:1042E0004C6995B2019401350024B4EB550F00F0F0
:1042F000DB814E896D080CEB460915F00306A5F12C
:10430000010700F02681DDF804A00097544634F838
:10431000027BCB46012E2BF8047B40F02B81009FC3
:10432000D9463D4648F2800BABE1B8F80230022C8A
:10433000A9F804300DD109F1080908F10408023F79
:1043400010E07188022FA98033D108350436023A73
:1043500034E0B8F8043008F10608A9F8083009F18B
:104360000C09033FBCF1030F10D3A8F10806A9F113
:10437000100500BF36F8083F043F25F8103F73884A
:10438000AB80B3882B81F388AB81F3D1B0F8503088
:10439000097873440F010437DA534FEA410E2BE0DA
:1043A0007188022FA98040F0F48008350436023A63
:1043B000F4E0B188063629810C35033ABCF1030FCD
:1043C00010D3A6F10801A5F1100300BF31F8087F52
:1043D000043A23F8107F4F889F808F881F81CF88F1
:1043E0009F81F3D130F81E1040F60F7211400BF58B
:1043F0008042114320F81E1000EB4E000BF13001FB
:1044000040F63F729DE0725B43F00C0322F4F842E9
:104410007253725B42F400427253B0F850203A4437
:10442000D75A27F4F847D752D75A47F40047D752FC
:1044300059E0725B47F00C0722F4F8427253725B4A
:1044400042F400427253B0F850201A44D35B23F474
:10445000F843D353D35B43F40043D35366E0D4060D
:1044600048F200044FEA521ECFF6FF744FF0FF3CB3
:1044700008BF0CEB521E44EA8E247453B0F850600F
:1044800043F00C033E2A374421D802F0010606EB24
:104490005202920226E0D40648F200044FEA521E6D
:1044A000CFF6FF744FF0FF3C08BF0CEB521E44EAFE
:1044B0008E247453B0F8506047F00C073E2A334402
:1044C00028D802F0010606EB520292022DE05609AE
:1044D0004FF0FF35D40608BF05EB52164FF40042EB
:1044E00042EA8622DA53CA6902B30A7844F24007E4
:1044F00030F822303B40BB4200D0BBB9520030F80C
:10450000123040F60F773B4048F2C0073B4320F89B
:1045100012300BE056094FF0FF35D40608BF05EB0B
:1045200052164FF4004242EA8622FA52097843F6C4
:104530000F7200EB810048F28001CFF6FF7101F5A8
:10454000405103881A4051400180002003B0BDE86B
:10455000F08F019C95E02746BAF80240022E48F2FF
:10456000800BACF804402ED10CF1080C0AF10409C0
:10457000023D31E0BAF80240022EA9F80440009F43
:1045800048F2800B74D109F108090AF10404023DD4
:1045900077E0B188063629810C35033ABCF1030F68
:1045A000FFF42AAFA6F10803A5F1100133F8087F44
:1045B000043A21F8107F5F888F809F880F81DF8801
:1045C0008F81F3D118E7BAF804400AF10609ACF874
:1045D00008400CF10C0C033D3C46032C10D3A9F110
:1045E0000807ACF1100600BF37F8084F043D26F865
:1045F000104F7C88B480BC883481FC88B481F3D1AE
:104600000AEB020598454FF000034D6184BFA8EB0B
:10461000020390460B62B0F85020029B002743F043
:104620000C03034413441FFA88F20132B7EB520F14
:10463000A3F800843FF4E0AE4B895108019A11F0D1
:10464000030702EB4306A1F101036AD035F8024BE0
:104650003246012F22F8044B02D11646194660E07B
:1046600035F8022B022FB28056D10836023958E0B5
:10467000BAF80440033DA9F8084009F10C090AF111
:104680000604032F10D3A4F10807A9F1100600BFF8
:1046900037F8084F043D26F8104F7C88B480BC885A
:1046A0003481FC88B481F3D1019C984504EB020568
:1046B0004FF000034D6184BFA8EB020390460B62EC
:1046C000B0F85030029A002642F004020CEB0204CB
:1046D0001FFA88F20132B6EB520F24F803803FF440
:1046E0008BAE0B8951080CEB430611F00307A1F1C7
:1046F00001032FD035F8024B3246012F22F8044B2C
:1047000002D11646194625E035F8022B022FB28059
:104710001BD1083602391DE035F8022B03393281EE
:104720000C36032BFFF468AEA5F10803A6F11002C6
:1047300033F8087F043922F8107F5F8897809F88BC
:104740001781DF889781F3D156E635F8022B0339BC
:1047500032810C36032BFFF44FAEA5F10803A6F10E
:10476000100200BF33F8087F043922F8107F5F88F9
:1047700097809F881781DF889781F3D13CE60000FE
:1047800001460020A1F844004FF43F420020A1F868
:104790004020704741F2E800C2F20000FCF7CEBCB6
:1047A000B0F844007047000070B500EB42000022F2
:1047B000B2EB530F00F5806414D04FEA530C1CF099
:1047C0000305ACF1010E0FD0224632F8046B084607
:1047D000012D20F8026B0DD10146F446BEF1030F06
:1047E00036D321E0224633E008462246BEF1030FCD
:1047F0002ED319E0A088022D488009D1043104F19C
:104800000802ACF1020C0846BEF1030F20D30BE006
:10481000208904F10C0288800631ACF1030C0846B3
:10482000BEF1030F14D300BF32F8101BBCF1040C0F
:1048300020F8081B32F80C1C20F8061C32F8081C63
:1048400020F8041C32F8041C20F8021CECD10146AC
:10485000D8071CBF1088087070BD0000002070478A
:10486000002904BF8021A0F84C10002070470000F0
:10487000B0B501330024B4EB530F39D05B0800EB23
:10488000420000F5806E13F00302A3F1010C1CD06E
:10489000084630F8025B7446012A24F8045B03D111
:1048A0000146A646634610E04888022AAEF8040096
:1048B00004D10EF1080E0431023B06E0888806316F
:1048C000AEF808000EF10C0E033BBCF1030F38BF2D
:1048D000B0BD0839AEF1100031F8082F043B20F8C4
:1048E000102F4A8882808A880281CA888281F3D107
:1048F000B0BD0000FEE7000086B040F6B45AC2F238
:10490000000A41F2040440F6004B50464021CEF22A
:104910000004C4F2010BFBF71EFCFCF733FAFEF7B0
:1049200095F8FDF765FFFDF7E3FFFEF715F8FDF7D6
:104930003FFFFEF747F841F2D435C2F200052846A2
:104940003C21FDF70BFE286847F6FF75406A40F2F0
:10495000B419013880B241F21C46281AC2F200098B
:10496000C2F20006C9F8000030463C21FDF7F6FD12
:10497000306840F2B811406AC2F20001013880B2DA
:10498000281A08604EF6FC50CEF20000016800259F
:1049900021F080710160016841F08071016054F87C
:1049A000040C002120F0010044F8040C54F8040C1D
:1049B00040F0010044F8040C256000BF00BF00BFB8
:1049C000206802A8FDF728FEDDE9020140F2A012EE
:1049D000C2F20002C2E9000102A801210126FDF78E
:1049E0001BFEDDE9020140F2A812C2F200020BF543
:1049F0008067C2E9000138464FF40051FCF7A2F984
:104A0000002800F0D48740F274174DF68369C2F293
:104A100000074FF06408C4F21B3916E050464021ED
:104A2000FBF70EFD0520FCF76DF840F27417C2F29B
:104A300000073E683046FBF799FB81B23046FBF732
:104A4000FFFC50464021FBF786FBC8250A20FCF7F7
:104A500059F89AF80000582840F09A819AF8010015
:104A6000452846D19AF802002B280BD158464FF41E
:104A700000710122FCF76CF99AF8030044280DD06C
:104A80009AF802002D2832D158464FF400710022C6
:104A9000FCF75EF99AF80300442828D150464021DB
:104AA000FBF7CEFC0520FCF72DF840F27810C2F29F
:104AB000000006683046FBF759FB81B23046FBF731
:104AC000BFFC0520FCF71EF850464021FBF7B8FC60
:104AD0000520FCF717F83E683046FBF747FB81B22C
:104AE0003046FBF7ADFC50464021FBF734FB9AF80B
:104AF0000100462840F04A819AF802002B2840F035
:104B0000988058464FF400710122FCF721F99AF879
:104B10000900442840F08B8001F01AFD40F2B017E4
:104B2000C2F20007386050464021FBF789FC05209F
:104B3000FBF7E8FF40F27810C2F20000066830464A
:104B4000FBF714FB81B23046FBF77AFC0520FBF73C
:104B5000D9FF3868002800F00281002609E000BF74
:104B600040F2B010C2F2000000680136864280F0C8
:104B7000F68058464FF40051FCF7E4F8002840F066
:104B8000EE8058464FF480710122FCF7E1F8CDF831
:104B900008802768FDF78AF9A0FB0901029A880CB2
:104BA00002FB00F1029100BF2168029AC91B121A90
:104BB000914211D22168029AC91B121A91420BD25A
:104BC0002168029AC91B121A914205D22168029AE1
:104BD000C91B121A9142E7D358464FF48071002244
:104BE000FCF7B6F8CDF808802768FDF75FF9A0FB61
:104BF0000901029A880C02FB00F102912168029AD5
:104C0000C91B121A9142ABD22168029AC91B121A0F
:104C10009142A5D22168029AC91B121A91429FD2D1
:104C20002168029AC91B121A9142E7D398E79AF8B1
:104C300002002D2840F0AA8058464FF4007100224F
:104C4000FCF786F89AF80900442840F09F8001F0AC
:104C50007FFC40F2B017C2F2000738605046402196
:104C6000FBF7EEFB0520FBF74DFF40F27810C2F298
:104C7000000006683046FBF779FA81B23046FBF750
:104C8000DFFB0520FBF73EFF3868002867D00026D1
:104C900008E000BF40F2B010C2F200000068013628
:104CA00086425CD258464FF48041FCF74BF800280E
:104CB00055D158464FF480710122FCF749F8CDF8E0
:104CC00008802768FDF7F2F8A0FB0901029A880C1A
:104CD00002FB00F1029100BF2168029AC91B121A5F
:104CE000914211D22168029AC91B121A91420BD229
:104CF0002168029AC91B121A914205D22168029AB0
:104D0000C91B121A9142E7D358464FF48071002212
:104D1000FCF71EF8CDF808802768FDF7C7F8A0FB60
:104D20000901029A880C02FB00F102912168029AA3
:104D3000C91B121A9142ADD22168029AC91B121ADC
:104D40009142A7D22168029AC91B121A9142A1D29C
:104D50002168029AC91B121A9142E7D39AE750467A
:104D60004021FBF76DFB0520FBF7CCFE40F27417EA
:104D7000C2F200073E683046FBF7F8F981B23046D0
:104D8000FBF75EFB50464021FBF7E5F99AF800007F
:104D9000592840F08B819AF80100452844D19AF8AF
:104DA00002002B280AD1584680210122FBF7D0FFB0
:104DB0009AF8030044280CD09AF802002D2831D12B
:104DC000584680210022FBF7C3FF9AF803004428CD
:104DD00028D150464021FBF733FB0520FBF792FE1C
:104DE00040F27810C2F2000006683046FBF7BEF9C8
:104DF00081B23046FBF724FB0520FBF783FE5046CB
:104E00004021FBF71DFB0520FBF77CFE3E6830468A
:104E1000FBF7ACF981B23046FBF712FB504640215C
:104E2000FBF799F99AF80100462840F03F819AF87B
:104E300002002B2840F09380584680210122FBF786
:104E400087FF9AF80900442840F0878001F080FB32
:104E500040F2B017C2F20007386050464021FBF71D
:104E6000EFFA0520FBF74EFE40F27810C2F2000088
:104E700006683046FBF77AF981B23046FBF7E0FA74
:104E80000520FBF73FFE3868002800F0F880002678
:104E900009E000BF40F2B010C2F200000068013625
:104EA000864280F0EC8058464FF40061FBF74AFFE1
:104EB000002840F0E480584640210122FBF748FFDB
:104EC00002952768FCF7F2FFA0FB0901029A880C03
:104ED00002FB00F1029100BF2168029AC91B121A5D
:104EE000914211D22168029AC91B121A91420BD227
:104EF0002168029AC91B121A914205D22168029AAE
:104F0000C91B121A9142E7D3584640210022FBF7F1
:104F10001FFF02952768FCF7C9FFA0FB0901029A51
:104F2000880C02FB00F102912168029AC91B121A37
:104F30009142AFD22168029AC91B121A9142A9D29A
:104F40002168029AC91B121A9142A3D22168029ABF
:104F5000C91B121A9142E7D39CE79AF802002D2848
:104F600040F0A480584680210022FBF7F1FE9AF819
:104F70000900442840F09A8001F0EAFA40F2B017A4
:104F8000C2F20007386050464021FBF759FA05206D
:104F9000FBF7B8FD40F27810C2F200000668304618
:104FA000FBF7E4F881B23046FBF74AFA0520FBF73D
:104FB000A9FD3868002862D0002607E040F2B01052
:104FC000C2F2000000680136864258D258464FF4BB
:104FD0008051FBF7B7FE002851D1584640210122ED
:104FE000FBF7B6FE02952768FCF760FFA0FB0901FE
:104FF000029A880C02FB00F1029100BF2168029A1C
:10500000C91B121A914211D22168029AC91B121AA5
:1050100091420BD22168029AC91B121A914205D201
:105020002168029AC91B121A9142E7D358464021BF
:105030000022FBF78DFE02952768FCF737FFA0FBE7
:105040000901029A880C02FB00F102912168029A80
:10505000C91B121A9142B1D22168029AC91B121AB5
:105060009142ABD22168029AC91B121A9142A5D271
:105070002168029AC91B121A9142E7D39EE7504653
:105080004021FBF7DDF90520FBF73CFD40F27417EA
:10509000C2F200073E683046FBF768F881B230463E
:1050A000FBF7CEF950464021FBF755F89AF800007F
:1050B0005A2840F089819AF80100452844D19AF88D
:1050C00002002B280AD1584620210122FBF740FE7E
:1050D0009AF8030044280CD09AF802002D2831D108
:1050E000584620210022FBF733FE9AF8030044289B
:1050F00028D150464021FBF7A3F90520FBF702FD1C
:1051000040F27810C2F2000006683046FBF72EF835
:1051100081B23046FBF794F90520FBF7F3FC5046CB
:105120004021FBF78DF90520FBF7ECFC3E6830468B
:10513000FBF71CF881B23046FBF782F9504640215C
:10514000FBF709F89AF80100462840F03D819AF8EB
:1051500002002B2840F09180584620210122FBF7C5
:10516000F7FD9AF80900442840F0858001F0F0F935
:1051700040F2B017C2F20007386050464021FBF7FA
:105180005FF90520FBF7BEFC40F27810C2F2000088
:1051900006683046FAF7EAFF81B23046FBF750F96D
:1051A0000520FBF7AFFC3868002800F0F6800026E9
:1051B00009E000BF40F2B010C2F200000068013602
:1051C000864280F0EA8058460421FBF7BBFD0028A8
:1051D00040F0E380584610210122FBF7B9FD02950B
:1051E0002768FCF763FEA0FB0901029A880C02FB0A
:1051F00000F102912168029AC91B121A914211D240
:105200002168029AC91B121A91420BD22168029A94
:10521000C91B121A914205D22168029AC91B121A9F
:105220009142E7D3584610210022FBF791FD0295E9
:105230002768FCF73BFEA0FB0901029A880C02FBE1
:1052400000F102912168029AC91B121A9142B1D24F
:105250002168029AC91B121A9142ABD22168029AA4
:10526000C91B121A9142A5D22168029AC91B121AAF
:105270009142E7D39EE79AF802002D2840F0A480DF
:10528000584620210022FBF763FD9AF809004428C4
:1052900040F09A8001F05CF940F2B017C2F20007CA
:1052A000386050464021FBF7CBF80520FBF72AFC7D
:1052B00040F27810C2F2000006683046FAF756FF56
:1052C00081B23046FBF7BCF80520FBF71BFC3868C1
:1052D000002862D0002607E040F2B010C2F20000C1
:1052E00000680136864258D258464FF48061FBF779
:1052F00029FD002851D1584610210122FBF728FD35
:1053000002952768FCF7D2FDA0FB0901029A880CE0
:1053100002FB00F1029100BF2168029AC91B121A18
:10532000914211D22168029AC91B121A91420BD2E2
:105330002168029AC91B121A914205D22168029A69
:10534000C91B121A9142E7D3584610210022FBF7DD
:10535000FFFC02952768FCF7A9FDA0FB0901029A52
:10536000880C02FB00F102912168029AC91B121AF3
:105370009142B1D22168029AC91B121A9142ABD252
:105380002168029AC91B121A9142A5D22168029A79
:10539000C91B121A9142E7D39EE750464021FBF702
:1053A0004FF80520FBF7AEFB40F27417C2F200077E
:1053B0003E683046FAF7DAFE81B23046FBF740F835
:1053C00050464021FAF7C7FE9AF80000502840F0F6
:1053D00066819AF80110462940F061819AF802002E
:1053E0002B2840F09680ABF5806630464FF4806104
:1053F0000122FBF7ADFC9AF80900442840F08780B1
:1054000001F0A6F840F2B015C2F20005286050463F
:105410004021FBF715F80520FBF774FB40F27810EC
:10542000C2F2000007683846FAF7A0FE81B238469B
:10543000FBF706F80520FBF765FB2868002800F05D
:10544000F880002709E000BF40F2B010C2F200006F
:1054500000680137874280F0EC8030464FF40071DD
:105460000122FBF775FCCDF80880D4F800B0FCF7FA
:105470001DFDA0FB0901029A880C02FB00F10291BC
:105480002168029AA1EB0B01121A914214D22168F1
:10549000029AA1EB0B01121A91420DD22168029AD5
:1054A000A1EB0B01121A914206D22168029AA1EBDC
:1054B0000B01121A9142E3D330464FF400710022DF
:1054C000FBF746FCCDF808802568FCF7EFFCA0FB55
:1054D0000901029A880C02FB00F102912168029AEC
:1054E000491B121A9142AFD22168029A491B121A23
:1054F0009142A9D22168029A491B121A9142A3D261
:105500002168029A491B121A9142E7D39CE79AF844
:1055100002002D2840F0C180ABF5806630464FF484
:1055200080610022FBF714FC9AF80900442840F03F
:10553000B48001F00DF840F2B015C2F20005286009
:1055400050464021FAF77CFF0520FBF7DBFA40F2DA
:105550007810C2F2000007683846FAF707FE81B2F9
:105560003846FAF76DFF0520FBF7CCFA28680028CB
:105570007BD0002708E000BF40F2B010C2F200006C
:1055800000680137874270D230464FF40071012223
:10559000FBF7DEFBCDF808802568FCF787FCA0FB55
:1055A0000901029A880C02FB00F102912168029A1B
:1055B000491B121A914211D22168029A491B121AF0
:1055C00091420BD22168029A491B121A914205D2CC
:1055D0002168029A491B121A9142E7D330464FF4D0
:1055E00000710022FBF7B4FBCDF808802568FCF7BA
:1055F0005DFCA0FB0901029A880C02FB00F10291FC
:105600002168029A491B121A9142B5D22168029A66
:10561000491B121A9142AFD22168029A491B121AF1
:105620009142A9D22168029A491B121A9142E7D3EA
:10563000A2E750464021FAF703FF0520FBF762FA84
:1056400040F27417C2F200073E683046FAF78EFD4A
:1056500081B23046FAF7F4FE50464021FAF77BFD5E
:1056600040F6004BC4F2010B16E050464021FAF719
:10567000E7FE0520FBF746FA40F27417C2F2000776
:105680003E683046FAF772FD81B23046FAF7D8FE2E
:1056900050464021FAF75FFDC8259AF800004128DE
:1056A0007FF4D4A99AF80100452848D19AF802005D
:1056B0002B280CD1ABF580604FF480710122FBF7F1
:1056C00047FB9AF8030044280ED09AF802002D28D0
:1056D00033D1ABF580604FF480710022FBF738FBCB
:1056E0009AF80300442828D150464021FAF7A8FE32
:1056F0000520FBF707FA40F27810C2F200000668B6
:105700003046FAF733FD81B23046FAF799FE0520AC
:10571000FBF7F8F950464021FAF792FE0520FBF717
:10572000F1F93E683046FAF721FD81B23046FAF7CA
:1057300087FE50464021FAF70EFD9AF801004628F0
:105740007FF484A99AF802002B280DD1ABF5806074
:105750004FF480710122FBF7FBFA9AF80900442804
:1057600000F09C809AF802002D287FF46FA9ABF519
:1057700080604FF480710022FBF7EAFA9AF8090082
:1057800044287FF463A9C82700F0E2FE40F2B01578
:10579000C2F20005286050464021FAF751FE05206C
:1057A000FBF7B0F940F27810C2F20000066830460C
:1057B000FAF7DCFC81B23046FAF742FE0520FBF72F
:1057C000A1F9286800283FF429A9002609E000BFB4
:1057D00040F2B010C2F20000006801368642BFF409
:1057E0001DA958460221FBF7ADFA00287FF416A93F
:1057F00058464FF400410122FBF7AAFA02972568A8
:10580000FCF754FBA0FB0901029A880C02FB00F193
:10581000029100BF2168029A491B121A914211D2CB
:105820002168029A491B121A91420BD22168029AEE
:10583000491B121A914205D22168029A491B121A79
:105840009142E7D358464FF400410022FBF780FA1B
:1058500002972568FCF72AFBA0FB0901029A880C35
:1058600002FB00F1029100BF2168029A491B121A43
:105870009142ADD22168029A491B121A9142A7D2D5
:105880002168029A491B121A9142A1D22168029AF8
:10589000491B121A9142E7D39AE700BFC82700F0CC
:1058A00057FE40F2B015C2F2000528605046402174
:1058B000FAF7C6FD0520FBF725F940F27810C2F291
:1058C000000006683046FAF751FC81B23046FAF71C
:1058D000B7FD0520FBF716F9286800283FF49EA8BD
:1058E000002608E040F2B010C2F200000068013665
:1058F0008642BFF493A858460121FBF723FA0028FB
:105900007FF48CA858464FF400410122FBF720FA9F
:1059100002972568FCF7CAFAA0FB0901029A880CD5
:1059200002FB00F1029100BF2168029A491B121A82
:10593000914211D22168029A491B121A91420BD24C
:105940002168029A491B121A914205D22168029AD3
:10595000491B121A9142E7D358464FF400410022E6
:10596000FBF7F6F902972568FCF7A0FAA0FB0901FE
:10597000029A880C02FB00F1029100BF2168029A92
:10598000491B121A9142ADD22168029A491B121A80
:105990009142A7D22168029A491B121A9142A1D2C0
:1059A0002168029A491B121A9142E7D39AE741F201
:1059B000B800C2F2000002A9CDE90175CDE9036586
:1059C000FAF762FD18B1EFF3108072B6FEE741F20C
:1059D000B8064DF6836AC2F200064FF06408C4F2BE
:1059E0001B3A4FF0C80B18E0306840F2B811C2F211
:1059F000000141F2B806086000210120C2F2000651
:105A00000291CDE90301304602A9FAF73DFD40F2CB
:105A1000B4190028C2F20009D5D13046FAF79AFF2E
:105A200030466421FAF7B8FE3046FAF7D7FD07464C
:105A30003046FBF72FF840F2A015C2F200052868A7
:105A400040F29811381AC2F20001002301220860C6
:105A5000304602A9CDE902220493FAF715FD002889
:105A600040F071853046FAF775FF30466421FAF749
:105A700093FE3046FAF7B2FD07463046FBF70AF8C8
:105A800040F2A813C2F20003186840F29816C2F25E
:105A90000006391A306871600146002848BF41424B
:105AA0006A68914240F30C8140F600450128C4F237
:105AB000010507DB28464FF40051FBF743F90028A6
:105AC00000F0878028464FF48041FBF73BF940F215
:105AD000A8130028C2F2000340F0F28040F600450F
